:1000C30075A0FE12010A12000E8F0AE50A60F705F9
:1000D3000BE50BC394024003E4F50BE50AB40202FB
:1000E300B2A2E50AB40302B2A3E50AB404D8B2A4E7
:0200F30080D4B7
:03000B0002006F81
:0B006F00C0E0C0D075D000C000C0078A
:10007A00758CFC758A180509E50970020508C39490
:10008A00F4E50894014029750800750900E50B702C
:10009A000DAFA07801EF08800123D8FDF5A0E50B8C
:1000AA00B4010DAFA07801EF08800103D8FDF5A0D7
:0900BA00D007D000D0D0D0E03214
:10010A00758901C28DD28C758CFC758A18D2A9D2D8
:04011A00AFC2B92295
:10000E00E4F50C20B1137F14FE1200F530A1FD7F34
:10001E00147E001200F5750C0120B0147F147E00C2
:10002E001200F530A0FD7F147E001200F5750C0253
:10003E0020B2147F147E001200F530A2FD7F147ED4
:10004E00001200F5750C0320B3147F147E0012000D
:10005E00F530A3FD7F147E001200F5750C04AF0C75
:01006E00226F
:1000F500EF1FAC0670011E4C600A7D027CEFDCFE32
:04010500DDFC80ECB1
:0101090022D3
:0300000002011EDC
:0C011E00787FE4F6D8FD75810C0200C368
:00000001FF
